:100F04000A128A11DE2F031383123F3085000A125E
:100F14008A11080003138312063085000A128A110D
:100F24000800031383125B3085000A128A1108003B
:100F3400031383124F3085000A128A110800031329
:100F44008312663085000A128A1108000313831283
:100F54006D3085000A128A110800031383127D3054
:100F640085000A128A1108000313831207308500D2
:100F74000A128A110800031383127F3085000A12B3
:100F84008A110800031383126F3085000A128A1134
:100F94000800FF30A2000A128A11A20BCF2F08000A
:100FA400FF30A100CB27A10BD42F08000830A000EC
:100FB400D227A00BDA2F08000310831203130317A0
:100FC40083168801031383160030850003138312EC
:100FD40085018527D8278C27D8279327D8279A27B0
:100FE400D827A127D827A827D827AF27D827B627B7
:0C0FF400D827BD27D827C427D827EB2F0B
:04400E00C418FF3F94
:00000001FF
